:020000040000FA
:10000000E00E00209D010000BD010000BF010000C6
:1000100000000000000000000000000000000000E0
:10002000000000000000000000000000C10100000E
:100030000000000000000000C3010000C501000036
:1000400085040000C701000095320000B9320000AD
:10005000DD32000021330000C13D00003D3F0000C3
:10006000C7010000C7010000C7010000C701000070
:100070006D430000A9430000C7010000C701000054
:10008000C7010000C7010000C7010000C701000050
:10009000C7010000C7010000C70100001D440000A7
:1000A000C7010000C7010000C7010000C701000030
:1000B000B9400000C7010000C7010000C7010000EF
:1000C00000F002F800F03EF80CA030C80838241800
:1000D0002D18A246671EAB4654465D46AC4201D180
:1000E00000F030F87E460F3E0FCCB6460126334274
:1000F00000D0FB1AA246AB4633431847E84900003C
:10010000084A0000103A02D378C878C1FAD85207DA
:1001100001D330C830C101D504680C6070470000BD
:100120000023002400250026103A01D378C1FBD813
:10013000520700D330C100D50B6070471FB51FBDFB
:1001400010B510BD00F06DF91146FFF7F7FF04F090
:1001500095FA00F085F903B4FFF7F2FF03BC00F055
:1001600089F9000070B505460C46164602E00FCC32
:100170000FC5103E102EFAD2082E02D303CC03C5B1
:10018000083E042E07D301CC01C5361F03E02178B9
:100190002970641C6D1C761EF9D270BD0D480E4985
:1001A00001600E4901600E4901600E4A0E4911605E
:1001B000002101600D4880470D480047FEE7FEE73B
:1001C000FEE7FEE7FEE7FEE70A480B49094A0B4B4C
:1001D00070470000000100505900000016000000A8
:1001E0008800000024000050A55A00006943000068
:1001F000C1000000E00A0020E00E0020E00A00201C
:10020000F8B5042A2CD3830712D00B78491C03704D
:10021000401C521E83070BD00B78491C0370401CF6
:10022000521E830704D00B78491C0370401C521ED9
:100230008B079B0F05D0C91ADF002023DE1B08C9DE
:100240000AE0FFF78FFFF8BD1D4608C9FD401C46B8
:10025000B4402C4310C0121F042AF5D2F308C91A67
:10026000521EF0D40B78491C0370401C521EEAD475
:100270000B78491C0370401C012AE4D409780170F2
:10028000F8BD01E004C0091F0429FBD28B0701D58A
:100290000280801CC90700D00270704700290BD073
:1002A000C30702D00270401C491E022904D38307F1
:1002B00002D50280801C891EE3E70022EEE70022BF
:1002C000DFE7002203098B422CD3030A8B4211D3B0
:1002D00000239C464EE003460B433CD400224308D7
:1002E0008B4231D303098B421CD3030A8B4201D3C7
:1002F00094463FE0C3098B4201D3CB01C01A52415F
:1003000083098B4201D38B01C01A524143098B42AE
:1003100001D34B01C01A524103098B4201D30B0197
:10032000C01A5241C3088B4201D3CB00C01A5241BC
:1003300083088B4201D38B00C01A524143088B4281
:1003400001D34B00C01A5241411A00D2014652411A
:10035000104670475DE0CA0F00D04942031000D339
:100360004042534000229C4603098B422DD3030A8E
:100370008B4212D3FC22890112BA030A8B420CD39E
:10038000890192118B4208D3890192118B4204D3C7
:1003900089013AD0921100E08909C3098B4201D347
:1003A000CB01C01A524183098B4201D38B01C01A81
:1003B000524143098B4201D34B01C01A52410309F8
:1003C0008B4201D30B01C01A5241C3088B4201D3A7
:1003D000CB00C01A524183088B4201D38B00C01A54
:1003E0005241D9D243088B4201D34B00C01A52412B
:1003F000411A00D20146634652415B10104601D3B8
:100400004042002B00D54942704763465B1000D341
:10041000404201B50020C046C04602BD704770474B
:100420007047754600F022F8AE460500694653460F
:10043000C008C000854618B020B5FFF7C5FE60BCF7
:1004400000274908B6460026C0C5C0C5C0C5C0C5FE
:10045000C0C5C0C5C0C5C0C5403D49008D46704738
:100460000446C046C0462046FFF775FE0048704768
:100470007C0A002001491820ABBEFEE726000200DE
:100480007047000010B505200007806910218843DF
:10049000103005210907886103480068002802D050
:1004A00001480068804710BD30080020F7B582B0D1
:1004B000174631483C1803990298FFF702FF0007DE
:1004C000000F03280FD2606A012149078843606248
:1004D000606A49108843606203990298FFF7F1FE51
:1004E0000009861E40E0606A0121490788434018E0
:1004F0006062606A491088434018606203990298FC
:10050000FFF7DFFE861E1D4886422DDD606A012151
:100510004907884340186062606A491088436062F6
:1005200008251EE003990298FFF7CBFE691C019095
:10053000FFF7C7FE032913D2606A0F21090688431B
:1005400029060F221206114008436062039902989F
:10055000FFF7B7FE691C0190FFF7B3FE861E02E0AD
:100560006D1C102DDEDB00BF606A000C0004B1B210
:100570000843606205B0F0BD00000540FFFF0000C9
:1005800070B504460D46E0690575012D04D1217949
:10059000022000F0A7FC03E02179022000F09CF883
:1005A000012070BD70B504460D46207DA8420DD0D7
:1005B0000120A0702575217D6171E078211D01F079
:1005C00063F8034801F0D6FC0020A07070BD000065
:1005D000E093040070B504460D46E069456025616E
:1005E000E07821460C3101F04FF870BD024613024D
:1005F0000B4318467047000010B518488068002863
:100600001BD016488078012817D114488068401EF6
:10061000124988600846C069007D012806D1084655
:10062000C069C068401CC969C86006E00B48C06961
:10063000C068401E0949C969C86008488068002828
:1006400004D00648C069C068002805D1034803F0FB
:1006500047FD00200149886010BD000024090020EA
:1006600010B51848806800281BD0164880780128EB
:1006700017D114488068401E124988600846C06936
:10068000007D012806D10846C069C068401CC969C0
:10069000C86006E00B48C069C068401E0949C969C6
:1006A000C86008488068002804D00648C069C0684F
:1006B000002805D1034803F013FD0020014988609C
:1006C00010BD00004409002001E000BF00BF01464A
:1006D000401E0029F9D1704710B50346002901DBFF
:1006E000102901DD054810BD9801054C02199068DC
:1006F00001248C40A04390600020F4E70189FFFFB3
:100700000040005010B501460B0003F095FF3E205D
:100710002A414B5C747D7E94A4B4F1EFEEEDECEBDA
:10072000EAE9E8E7E6E5E4E3E2E1E0DFDEDDDCDBA1
:10073000DAD9D8D7D6D5D4D3D2D1D0CFCECDCCCB91
:10074000CAC9C8C7C6C5C4C3C2C1C0BFBEBD0020D8
:1007500005231B07186358639863D863FA4B186026
:1007600071E305200007406B01231B031843052399
:100770001B075863F448006901239B021843F24B9E
:100780001861184600695B019843EF4B18615AE302
:1007900005200007006B03231B02184305231B07DA
:1007A000186350E305200007006B03239B021843E6
:1007B00005231B071863E44800690123DB02984303
:1007C000E14B18613FE305200007806B0F231843BE
:1007D00005231B0798631846006B0123DB031843AE
:1007E00005231B071863D84800691F235B011843C2
:1007F000D54B186127E305200007C06BC0231843C1
:1008000005231B07D8631EE300BF062901D106227A
:1008100000E00E2205200007806B0323934018435D
:1008200005231B079863C84800690123DB0298432E
:10083000C54B186107E305200007806B0F231843A1
:1008400005231B079863C0480069FF23E1339843E1
:10085000BD4B1861F7E205200007406B01239B02A6
:10086000184305231B075863B74800690123184341
:10087000B54B1861E7E205200007806B3023184371
:1008800005231B079863DEE2DBE264E282E248E2D2
:1008900046E213E211E2D9E1D7E1B7E1B5E141E285
:1008A0000DE2D4E1B3E1A6E165E163E161E15FE17D
:1008B0005DE15BE14AE137E129E117E106E1F5E0BD
:1008C000E4E0D9E0CCE0C4E0A3E0AEE0ACE0AAE034
:1008D000A8E0A6E0A4E0B0E092E088E07EE073E06B
:1008E00062E057E04DE037E02DE022E011E0FFE765
:1008F00005200007806B0F231B02184305231B07ED
:100900009863914800690123DB0298438E4B18617C
:1009100099E205200007406B01235B021843052381
:100920001B0758638848006902231843864B1861E7
:1009300089E205200007806B03231B03184305236E
:100940001B0798637FE205200007C06B0F23184345
:1009500005231B07D86376E205200007006B802380
:10096000184305231B0718637748006904231843BD
:10097000754B1861184600695B019843724B18610A
:1009800061E205200007C06B3023184305231B07D5
:10099000D86358E205200007C06B0F231B021843E1
:1009A00005231B07D8634EE205200007406B012397
:1009B0009B03184305231B075863634800690823FA
:1009C0001843614B18613EE205200007C06B03230A
:1009D0001B03184305231B07D86334E205200007D7
:1009E000806B0F23184305231B0798632BE2052018
:1009F0000007C06B0223184305231B07D86322E2BC
:100A000005200007C06B0423184305231B07D86388
:100A100019E24D480069042398434B4B186100BF0D
:100A200000BF00BF00BF00BF00BF474800690123EF
:100A3000DB029843444B186100BF05200007006BA0
:100A40000B46173B01249C40204305231B071863DA
:100A5000F9E13D480069082398433B4B186100BF0A
:100A600005200007436B08461138012484402343C6
:100A7000052000074363E6E105200007406BFF23E4
:100A80000133184305231B075863DCE105200007E9
:100A9000406B01235B02184305231B0758632A4858
:100AA000006902239843284B1861CCE10520000718
:100AB000406B01239B02184305231B075863224800
:100AC000006940084000204B1861BCE10520000788
:100AD000406B0123DB02184305231B0758631A48A8
:100AE000006910239843184B1861ACE105200007FA
:100AF000406B0123DB03184305231B07586312488F
:100B0000006901231B0618430F4B18619BE10E4837
:100B10000068202318430C4B186018460069DB045A
:100B20001843094B18618EE105200007406B042330
:100B3000184305231B0758630348006901239B06DC
:100B40001843014B18617EE140000050052000076A
:100B5000406B0823184305231B075863BB480069F3
:100B60000123DB061843B94B18616CE100BF00BFDD
:100B700000BF00BF00BF292903DB2B2901DC0022B5
:100B800000E00422292901D02C2910D105200007DA
:100B9000406B0F239340184305231B075863AB4852
:100BA00000690123DB029843A84B186122E02A293F
:100BB00001D02D2909D105200007406B0323934064
:100BC000184305231B07586314E02B2901D02E2955
:100BD00010D105200007406B931C03249C40204348
:100BE00005231B075863994800690123DB029843DA
:100BF000964B186127E105200007C06B03239B0378
:100C0000184305231B07D8631DE100BF00BF30292F
:100C100008D105200007006B0B02184305231B07B2
:100C200018630AE005200007036B084628380124F2
:100C3000844023430520000703638448006901239F
:100C4000DB029843814B1861FDE000BF00BF3129F2
:100C500016D105200007006B03239B0318430523CF
:100C60001B0718637948006901235B029843774B9F
:100C70001861184600695B019843744B18611BE0CA
:100C800005200007036B08462838012484402343CD
:100C9000052000070363362907D16C48006901234A
:100CA000DB029843694B186106E06848006901233C
:100CB0005B029843654B1861C5E000BF00BF322955
:100CC00015D105200007406B0123DB0218430523E3
:100CD0001B0758635D480069102318435B4B18617C
:100CE0001846006820231843584B186017E038292D
:100CF0000FD105200007406B0123DB0218430523B9
:100D00001B07586351480069102318434F4B186163
:100D100005E04E480068202318434C4B186092E0D1
:100D200000BF00BF332906D1484800680323184399
:100D3000464B18600EE03A2906D14448006801236A
:100D40001843424B186005E04048006802231843EE
:100D50003E4B186077E005200007406B0C231843DA
:100D600005231B0758633948006903235B031843B5
:100D7000364B186105200007006B354B18430523DF
:100D80001B07186331480069FF231B0418432F4BCE
:100D9000186100BF3C291ED105200007406B0C23C1
:100DA000984305231B0758632848006903235B0306
:100DB0009843264B186105200007006B244BDB434A
:100DC000184005231B07186320480069FF231B04F4
:100DD00098431E4B18611D4800690323DB0218432A
:100DE0001A4B186105200007806BFF23013318435D
:100DF00005231B0798631846006B03239B021843C7
:100E000005231B0718631846406BC02318430523AE
:100E10001B0758631846006BC023184305231B07A4
:100E200018631846806B0B4B184305231B07986308
:100E30001846406B03231B03184305231B07586305
:100E400001E0054810BD00BF0020FBE74000005056
:100E50003E700000C0C000000189FFFF38B50346A6
:100E6000002901DB102901DD1C4838BD98011C4C0C
:100E700000190090002A03D0012A01D0022A1DD1B6
:100E8000009800684D000324AC40A043009C206003
:100E9000012A08D1009800684D000124AC4020438D
:100EA000009C206017E0022A15D1009800684D00D0
:100EB0000224AC402043009C20600CE0032A08D1AF
:100EC000009800684D000324AC402043009C206043
:100ED00001E00248C9E70020C7E700000189FFFFE1
:100EE0000040005010B50346002901DB102901DD48
:100EF000054810BD9801054C0219906801248C40EA
:100F0000204390600020F4E70189FFFF004000507B
:100F100010B54207520F130003F08EFB08050607B9
:100F2000081B1C1D1E3500BF00BF00BF8B4A926806
:100F300043079C0E0123A3409A43002904D0430792
:100F40009C0E0123A34000E000231A43834B9A60C8
:100F500019E000BF00BF00BF814A926843075B0FE2
:100F60001B1FDC000123A3409A43002906D043073E
:100F70005B0F1B1FDC000123A34000E000231A438A
:100F8000774B9A6000BF00BF10220240002A75D044
:100F90000246103A130003F04FFB08051F3B557241
:100FA0008CA8C2DE6F4A1268002A0AD06B4A40320F
:100FB00012696D4B1A4008231A43684B40331A617B
:100FC00009E0664A40321269684B1A4008231A4306
:100FD000624B40331A61BEE0624A1268002A0BD0AD
:100FE0005E4A40321269604B1A400123DB041A4307
:100FF0005A4B40331A610AE0584A403212695B4B3F
:101000001A400123DB041A43544B40331A61A2E017
:10101000544A1268002A0AD0504A40325269524B50
:101020001A4008231A434D4B40335A6109E04B4A9A
:10103000403252694D4B1A4008231A43474B403304
:101040005A6188E0474A1268002A0BD0434A40326E
:101050005269454B1A400123DB041A433F4B40338E
:101060005A610AE03D4A40325269404B1A4001231E
:10107000DB041A43394B40335A616CE06CE0394A67
:101080001268002A0AD0364A40321269364B1A409A
:1010900008231A43324B40331A6109E0304A403288
:1010A0001269324B1A4008231A432D4B40331A6100
:1010B00051E02C4A1268002A0BD0294A40321269AA
:1010C000294B1A400123DB041A43254B40331A6194
:1010D0000AE0234A40321269244B1A400123DB0400
:1010E0001A431F4B40331A6135E01E4A1268002A2A
:1010F0000AD01B4A403252691B4B1A4008231A433C
:10110000174B40335A6109E0154A40325269174B78
:101110001A4008231A43124B40335A611BE0114A0C
:101120001268002A0BD00E4A403252690E4B1A4008
:101130000123DB041A430A4B40335A610AE0084A90
:1011400040325269094B1A400123DB041A43044B15
:1011500040335A6100BF00BF10BD000000000440D2
:10116000000014402C0800200F000F00EFFFEFFFDD
:10117000F7B5074614460198C507ED0F02210198FF
:10118000084006463B0003F057FA180D4887C2FC9A
:10119000FBFAF91616161616161616175291CCF8F3
:1011A000F7F6F516FE48006840084000401CFC4970
:1011B0000860FC480460E5E1002D14D0FA4800689E
:1011C000002808D0F6480069F84908400221084381
:1011D000F349086107E0F2480069F5490840022137
:1011E0000843EF490861002E14D0EF48006800283A
:1011F00008D0EB480069ED49084004210843E8495C
:10120000086107E0E6480069E9490840042108430D
:10121000E3490861E3484460B4E1E1480068022121
:101220008843801CDE490860DE488460AAE1002D06
:1012300016D0DD480068002809D0D9480069DB498C
:101240000840012149040843D549086108E0D44811
:101250000069D7490840012149040843D049086181
:10126000002E16D0D0480068002809D0CC4800696C
:10127000CE490840012189040843C949086108E0B2
:10128000C7480069CA490840012189040843C44984
:101290000861C448C46075E1C148006804218843FE
:1012A000001DBF490860BF4804616BE1002D14D0E8
:1012B000BD480068002808D0B9484069BB490840CB
:1012C00002210843B649486107E0B5484069B8497A
:1012D000084002210843B2494861002E14D0B248A8
:1012E0000068002808D0AE484069B0490840042191
:1012F0000843AB49486107E0A9484069AC49084048
:1013000004210843A6494861A64844613AE1A4483B
:101310000068082188430830A1490860A148846119
:1013200030E1002D16D0A0480068002809D09C4864
:1013300040699E4908400121490408439849486191
:1013400008E0974840699A49084001214904084348
:1013500093494861002E1ED093480068002811D0A0
:101360008F484069914908400121890408438C490C
:10137000486110E0D1E095E055E019E0C3E087E076
:1013800047E00BE08648406989490840012189040B
:101390000843834948618348C461F3E08548006895
:1013A00040084000401C8349086083480460E9E02D
:1013B000002D14D07C480068002808D07D480069C2
:1013C0007A490840022108437A49086107E07948D0
:1013D0000069774908400221084376490861002ED8
:1013E00014D071480068002808D0724800696F491D
:1013F0000840042108436F49086107E06D4800690F
:101400006B490840042108436A4908616A484460FE
:10141000B8E06848006802218843801C654908607C
:1014200065488460AEE0002D16D05F480068002853
:1014300009D0604800695D4908400121490408431A
:101440005C49086108E05B4800695949084001218E
:101450004904084357490861002E16D052480068D5
:10146000002809D0534800695049084001218904E7
:1014700008435049086108E04E4800694C4908405B
:101480000121890408434B4908614B48C46079E055
:101490004848006804218843001D464908604648C2
:1014A00004616FE0002D14D03F480068002808D088
:1014B000404840693D490840022108433D49486190
:1014C00007E03C4840693A4908400221084339494D
:1014D0004861002E14D034480068002808D03548F0
:1014E000406932490840042108433249486107E015
:1014F000304840692E490840042108432D4948617D
:101500002D4844613EE02B4800680821884308309C
:10151000284908602848846134E0002D16D022480C
:101520000068002809D0234840692049084001216B
:10153000490408431F49486108E01E4840691C49A6
:1015400008400121490408431A494861002E16D079
:1015500015480068002809D016484069134908401A
:101560000121890408431349486108E01148406992
:101570000F4908400121890408430E4948610E487B
:10158000C46100BF00BF04203840002816D00221EB
:10159000072002F09DFB072002F090FB15E0000001
:1015A000400004407C0900202C0800200F000F00A0
:1015B000EFFFEFFF400014409C09002002210620AD
:1015C00002F086FB062002F079FBFEBD0C48806825
:1015D0000F21090508430A49886005200007C068F3
:1015E00003210905084305210907C8600846C068AA
:1015F00003210905884305210907C86070470000D9
:101600000002005010B54207520F130003F014F807
:1016100008050613141F202B2C3700BF194A5269E6
:1016200003231B079A430B070324240723401A4371
:10163000144B5A6123E000BF124A5269920092088B
:101640008B079B0F9B071A430E4B5A6117E000BF95
:101650000C4AD26930239A430B01302423401A43A9
:10166000084BDA610BE000BF064AD269C0239A43F7
:101670008B01C02423401A43024BDA6100BF00BF34
:1016800010BD000000020050F0B589B005460C46C0
:10169000002003906807400F030002F0CDFF08050B
:1016A000060C0D1213191A2000BFFB484069800078
:1016B000800F039013E000BFF7484069800F03904C
:1016C0000DE000BFF448C0698006800F039006E07B
:1016D00000BFF148C0690006800F039000BF00BF43
:1016E0000398002802D1ED4807900EE003980128E6
:1016F00002D1C003079008E00398022803D1E8480C
:101700000068079001E0E74807902B0002F094FF83
:10171000180D0E0F102425262723232323232323EC
:10172000233D6187ABD1F8F0EF2300BF00BF00BFBE
:10173000DD488068EA00921C012191408843E168FD
:10174000002904D0EA00921C0121914000E0002110
:101750000843D549886043E100BF00BF00BFD348BC
:101760008068291FCA00921C012191408843E168CA
:10177000002905D0291FCA00921C0121914000E0D8
:1017800000210843C94988602AE1C9480068002847
:101790000FD0C54840300069C6490840E1680029BB
:1017A00001D0012100E000210843BF494031086118
:1017B0000EE0BD4840300069BF490840E16800299B
:1017C00001D0012100E000210843B7494031086100
:1017D00006E1B7480068002810D0B34840300069DF
:1017E000B4490840E168002902D00121090400E061
:1017F00000210843AC49403108610FE0AA4840305D
:101800000069AD490840E168002902D001210904BE
:1018100000E000210843A44940310861E0E0A44809
:10182000006800280FD0A04840304069A149084016
:10183000E168002901D0012100E0002108439A4914
:10184000403148610EE09848403040699A4908406C
:10185000E168002901D0012100E0002108439249FC
:1018600040314861BCE092480068002810D08E48A2
:10187000403040698F490840E168002902D00121C9
:10188000090400E0002108438749403148610FE026
:1018900085484030406988490840E168002902D005
:1018A0000121090400E0002108437F4940314861DB
:1018B00096E07F48006800280FD07C4840300069DF
:1018C0007C490840E168002901D0012100E00021A5
:1018D000084376494031086111E07448403000699E
:1018E00075490840E168002904D0012103E051E076
:1018F0002CE005E0002108436C49403108616FE0AD
:101900006B480068002810D0684840300069694979
:101910000840E168002902D00121090400E000210B
:1019200008436249403108610FE060484030006977
:1019300061490840E168002902D00121090400E062
:101940000021084359494031086149E0584800687E
:1019500000280FD055484030406956490840E1689A
:10196000002901D0012100E0002108434F49403106
:1019700048610EE04D48403040694F490840E168F9
:10198000002901D0012100E00021084347494031EE
:10199000486125E046480068002810D043484030A0
:1019A000406944490840E168002902D00121090446
:1019B00000E0002108433D49403148610FE03B48C9
:1019C000403040693C490840E168002902D00121CB
:1019D000090400E00021084334494031486100BF58
:1019E00000BF6807400F030002F026FE0805060747
:1019F000081E1F20213B00BF00BF00BF2A4880688F
:101A000069078A0ED21C0121914088432178002960
:101A100005D069078A0ED21C0121914000E0002107
:101A20000843214988601CE000BF00BF00BF1F4879
:101A300080686907490F091FCA00D21C0121914023
:101A400088432178002907D06907490F091FCA0078
:101A5000D21C0121914000E0002108431349886015
:101A600000BF00BF606800287ED101200290680797
:101A7000400F030002F0E0FD080506222331323B4F
:101A80003C4A00BF08480068000A0002E1780843A9
:101A9000054908603AE0000000020050001BB70052
:101AA00000000020008051010000044000001440AC
:101AB0002C0800200F000F00EFFFEFFF00BFF648DB
:101AC0000068FF2109028843E1780902FF2212021F
:101AD00011400843F049086018E000BFEF48006873
:101AE000000A0002E1780843EC4908600EE000BFFC
:101AF000EA480068FF2109028843E1780902FF22D1
:101B0000120211400843E549086000BF00BF627837
:101B1000A168514308466421FEF7D3FB461E6807BF
:101B2000400F030002F088FD08050607082B2C2D46
:101B30002E5500BF00BF00BFD74840686907CA0ED6
:101B4000072191408843A1784907490F6A07D20EBF
:101B500091400843D0494860A068401E6907490F7A
:101B60000C225143CC4A00E05BE08918C86068074A
:101B7000400F0C21484311464018066129E000BF80
:101B800000BF00BFC54840686907490F091F8A00A8
:101B9000072191408843A1784907490F6A07520FEE
:101BA000121F920091400843BC494860A168491E39
:101BB0006807400F001F0C225043B84A8018C160CC
:101BC0006807400F001F0C2148431146401806616A
:101BD00000BF00BFA078030002F02EFD05070A0D2C
:101BE00010041300012002900BE00220029008E094
:101BF0000420029005E00820029002E010200290EC
:101C000000BF00BFE078411C0798FEF75AFB019027
:101C10000299FEF756FB0746A168FEF752FB0890B3
:101C200038E161680798FEF74CFB0890012109072D
:101C30000898884202D9002009B0F0BD0127790434
:101C40000898884201D202263DE00898060C3146E9
:101C50000898FEF736FB01210904884201D9701C5F
:101C600086B2FF20013086422DDD00200290FF2643
:101C7000013631460898FEF724FB089008980002C8
:101C8000070E39460898FEF71CFB3102884201D93D
:101C9000781CC7B208E00298411CC9B20291012128
:101CA0008140B94200DD00E0F5E700BF0298401E28
:101CB00001218140CFB2102F01DD0020BCE7089840
:101CC0007043089000BF31460898FEF7FAFA39468B
:101CD0000290FEF7F6FA80B2069031460798FEF7BA
:101CE000F0FA39460190FEF7ECFA02900699FEF7F9
:101CF000E8FA08906807400F030002F09DFC080511
:101D00000610111F202A2B3900BF63480068000A03
:101D10000002711EC9B208435F49086028E000BF95
:101D20005D480068FF2109028843711E0902FF22F5
:101D30001202114008435849086019E000BF574893
:101D40000068000A0002711EC9B2084353490860C6
:101D50000EE000BF51480068FF2109028843711E50
:101D60000902FF221202114008434C49086000BFDB
:101D700000BF042F0ED004DC012F07D0022F0FD19B
:101D800006E0082F08D0102F0AD107E0042707E04B
:101D9000002705E0012703E0022701E0032700BF39
:101DA00000BF1020284000280ED02089401E80B29D
:101DB00005906278A168514308466421FEF781FAD4
:101DC000401E80B204900DE00698401E80B205903F
:101DD0006178069A514308466421FEF77CFA401E5A
:101DE00080B204906807400F030002F025FC08054C
:101DF00006070828292A2B5100BF00BF00BF26482C
:101E000040686907CA0E0721914088437907490F46
:101E10006A07D20E914008431F4948606907490F7D
:101E20000C2251431C4A89180598C8606907490F5C
:101E30000C225143184A89180498086128E000BF11
:101E400000BF00BF154840686907490F091F8A0095
:101E50000721914088437907490F6A07520F121FE3
:101E60009200914008430D4948606807400F001FE9
:101E70000C225043094A80180599C1606807400F39
:101E8000001F0C225043054A80180499016100BFCD
:101E900000BF00BF0898CFE60000044000001440D7
:101EA00010B5002930D010220240002A17D0042299
:101EB0000240002A09D02D4A926B0346143B0124AC
:101EC0009C402243294B9A634EE0294A926B440777
:101ED000640F0123A3401A43254B9A6344E0042274
:101EE0000240002A08D0214AD26B031F01249C40E3
:101EF00022431E4BDA6337E01D4AD26B0123834035
:101F00001A431B4BDA632FE010220240002A17D03D
:101F100004220240002A09D0144A926B0346143B63
:101F200001249C40A243114B9A631DE0104A926B1E
:101F30004407640F0123A3409A430D4B9A6313E0B7
:101F400004220240002A08D0084AD36B041F012251
:101F5000A2409343054AD36306E0054AD26B0123AE
:101F600083409A43024BDA6310BD000040001440E6
:101F700040000440084909684143084A5161002172
:101F800091610521116100BF044909690122120410
:101F900011400029F8D070470400002000E000E064
:101FA00000487047001BB7007FB50025184B0FCBCA
:101FB0006C460FC41748006A0003C00F002801D008
:101FC000154C00E0154C1348006AC003C00F0028F0
:101FD00001D0002519E00F4A126A9204D20E911C1A
:101FE0000C4A126AD205D20D921C62431046FEF7CB
:101FF00068F906460748006A0004800F80006A46B8
:1020000011583046FEF75DF90546284604B070BD0C
:10201000D44A00000002005000805101001BB700AC
:1020200010B50446072C03DC032C03DD072C01DA72
:10203000074810BD07480069C008C0006107490F84
:1020400008430449086102F03FF90020F1E700006D
:102050000396FFFF0002005010B50246130002F085
:10206000EBFA0D978C7F7265584B3E331308281D91
:10207000A1004F48C0690C2398438B000C242340D7
:1020800018434B4BD8618FE04948C06980088000F5
:102090008B079B0F1843464BD86185E04448C069C5
:1020A000C02398438B01C02423401843404BD86180
:1020B0007AE03F48C069302398430B013024234025
:1020C00018433B4BD8616FE0394840698000800875
:1020D0008B079B0F9B071843354B586164E03448CE
:1020E000406903231B0798430B070324240723405D
:1020F00018432F4B586157E02D48406903231B06B6
:1021000098430B060324240623401843284B5861A8
:102110004AE02748406907231B0598430B0507241D
:10212000240523401843224B58613DE02048406974
:1021300007231B0498430B0407242404234018435B
:102140001B4B586130E01A48406907231B03984332
:102150000B030724240323401843154B586123E045
:102160001348406907231B0298430B0207242402EB
:10217000234018430E4B586116E00D4840690C236C
:1021800098438B000C2423401843094B58610BE003
:1021900007484069800880008B079B0F1843044B59
:1021A000586101E0034810BD00BF0020FBE70000BC
:1021B000000200500496FFFF10B50246002A06D028
:1021C000012A0ED0022A17D0032A2BD11FE018486B
:1021D000006840084000CB07DB0F1843144B186021
:1021E00022E013480068022398434B000224234056
:1021F00018430F4B186017E00D48006804239843FC
:102200008B00042423401843094B18600CE0084855
:10221000006808239843CB00082423401843044B4C
:10222000186001E0034810BD00BF0020FBE700007C
:10223000000200500396FFFF0B49096A0122920435
:102240009143820401239B041A401143064A116200
:102250001146096AD201914302049B101A401143AE
:10226000014A11627047000000020050F8B50646AE
:102270000C46002E09D001200005864205D04120E1
:102280008003864201D09048F8BDA07900280ED086
:10229000A07903280BD0A079012808D0A0790528BF
:1022A00005D0A079072802D08748401CECE72079A8
:1022B00000280BD02079012808D02079022805D0E9
:1022C0002079032802D08048801CDDE7607900284F
:1022D00008D06079012805D06079012802D07A48B9
:1022E000C01CD1E7E079002814D0E079012811D092
:1022F000E07902280ED0E07903280BD0E079042899
:1023000008D0E079052805D0E079062802D06E488B
:10231000001DB9E7002E1AD105200007C068012171
:1023200009048843401805210907C8600846C068A9
:1023300001210904884305210907C86063488068B2
:1023400001210904884340186049886035E0012074
:102350000005864217D105200007C068F1108843A8
:10236000401805210907C8600846C068F110884375
:1023700005210907C86055488068F1108843401856
:102380005249886019E005200007C06801218904CE
:102390008843401805210907C8600846C068012124
:1023A0008904884305210907C860484880680121DD
:1023B0008904884340184549886045483518A8680D
:1023C00004218843001DA860A86802218843801C5E
:1023D000A860A868F0218843E1790901F022114042
:1023E0000843A860E86820218843A17904221140AD
:1023F00089084901202211400843E860E86810215B
:102400008843A17902221140490809011022114094
:102410000843E860E86808218843A179C9000822D8
:1024200011400843E860E868800880002179890746
:10243000890F0843E860E8680421884361798900CE
:10244000042211400843E860286A000A0002217A49
:10245000084328621D480068C007C00F002807D045
:102460001A4840690321090688431849486122E057
:102470001648006AC003C00F00280AD113484069FB
:102480000321090688430121090640180F494861C4
:1024900011E00E4800684007C00F002808D00B4824
:1024A000406903210906884340180849486102E051
:1024B0000548801DE8E600F059FF074632462168CE
:1024C000FDF7F4FF0020DFE60298FFFF0002005056
:1024D0000000054030B503461F4A20488068C00907
:1024E000C0011E4CA060204600680124E403A04304
:1024F0001A4C206000F0D2FB194C001B174CA06155
:10250000002117E001200C01144D6419E0628800DD
:10251000144C205A8005800D0C016419A0620C2017
:102520004843114C001980680D4C001B0C016419C4
:102530002062491C0C2048430B4C001940680028BD
:10254000E0D100249420845495208454D06F07282F
:1025500001DD0720D06730BDBC0900200000064027
:1025600000010640640A00202000002010B5002170
:10257000084600F061FB044620010C494018C06A7F
:10258000012108432101094A8918C86280210020DD
:1025900000F052FB0446200104494018C06A0121A2
:1025A00008432101014A8918C86210BD0000064095
:1025B00010B50021084600F03FFB044620010C49FD
:1025C0004018C06A032108432101094A8918C862DA
:1025D0008021002000F030FB04462001044940180F
:1025E000C06A032108432101014A8918C86210BD4D
:1025F00000000640F8B507460024114D002618E0FB
:1026000084204159142070430C18A06800280FD072
:1026100021788C20405D60221040814208D1617891
:102620008D20405D814203D1A16820698847F8BDB3
:10263000761C88204059B042E2D800BFF7E700007E
:10264000BC090020014605488C22125C80231A40F8
:10265000002A02D00022024B5A637047BC090020B6
:102660000000064000B503460B4A9420805C002819
:1026700003D1072000F008FE0DE00F2000F004FE5B
:1026800006488068C009C0019421895C4906490E4A
:1026900008430249886000BDBC09002000000640D4
:1026A000F8B507460024114D002618E08420415952
:1026B000142070430C18E06800280FD021788C207B
:1026C000405D60221040814208D161788D20405DDC
:1026D000814203D1E16820698847F8BD761C8820D3
:1026E0004059B042E2D800BFF7E70000BC09002023
:1026F00030B50546064C8C20005D8021084000283E
:1027000004D100221146104600F076F930BD0000D9
:10271000BC090020FEB50025264EFFF727FF00F07C
:10272000C3FA01900198072802DAFFF741FFFEBDC6
:1027300000F0B4FA074601200003009000BF0098A3
:10274000411E00910028FAD1002404E0395D304692
:102750008C300155641C082CF8D301200003009034
:1027600000BF0098411E00910028FAD1002418E013
:1027700084208159142060430D18686800280FD008
:1027800029788C20805D60221040814208D16978D0
:102790008D20805D814203D1696828698847C6E73A
:1027A000641C88208059A042E2D8FFF701FF00BFD7
:1027B000BDE70000BC09002070B506462B4C8C20FC
:1027C000005D002810D18E20005D01280CD18D20E5
:1027D000005D032801D100F009FA8D20005D012879
:1027E0003DD100F0A3F93AE08C20005D012836D0FD
:1027F0008C20005D022830D18E20005D00282CD175
:102800009021085D00F000FA0546062D22D228012D
:1028100017494018806A802188432901144A891881
:1028200088628D20005D012809D1280111464018D9
:10283000C06A0221884329018918C8620FE0280173
:102840000B494018C06A022108432901084A891827
:10285000C86204E0FFF7ACFE01E0FFF7A9FE00222A
:102860001146104600F0C8F870BD0000BC090020F9
:102870000000064010B5044601220249002000F085
:10288000BBF810BD510A002018B504460020009086
:102890000122694600F0B0F818BD000078B5064680
:1028A0001C4C9021085D00F0AFF905468C20005DBE
:1028B000802808D19C20005D40009821095D0843D4
:1028C000694608701DE08C20005D812803D100203E
:1028D0006946087015E08C20005D82280ED1062D17
:1028E00009D228010C494018C06A0221084040085A
:1028F0006946087005E0FFF75BFE78BDFFF758FEFC
:10290000FBE7002069464870022200F075F800BF1E
:10291000F3E70000BC0900200000064070B5064641
:102920000C4C00F0C1F90546072D0FD18E20015D3A
:10293000942001550848806A80210843064988622E
:10294000002048620F2000F09FFC01E0FFF730FEFE
:1029500070BD0000BC09002000000640F8B5064626
:102960001A4CA4200559A868002804D08E22105DB6
:10297000A968884700E0012007468E20005D0028F6
:102980000CD10F2000F080FC8E20015D95200155B8
:1029900000221146104600F02FF816E0002F12D04A
:1029A0001F2000F071FC6868002802D0304669687A
:1029B00088478E20015D9520015500221146104662
:1029C00000F01AF801E0FFF7F3FDF8BDBC090020A4
:1029D00070B50546074EA42084596068002802D0CF
:1029E00028466168884700221146104600F004F826
:1029F00070BD0000BC090020F7B50F4616462F4DEC
:102A00008021009800F018F904460C206043294604
:102A1000283140184068B04201D22948FEBD002F3D
:102A20000BD0002E09D00C2161432A462832891888
:102A300032468868394601F0B7FD0C2060432946CC
:102A40002831401880681F49401A21011E4A891800
:102A50000862002F07D1002E05D10021A2002846D0
:102A6000103081500CE0A10028461030405800285A
:102A700001D1012100E00021A20028461030815040
:102A8000A100284610304058002806D020010E49E9
:102A90004018806A0D49084005E020010A494018A5
:102AA000806A802108432101074A89188862200131
:102AB0001146401846620020B0E70000BC09002023
:102AC0000399FFFF00010640000006407F0300005D
:102AD000F0B507460D46114E0021384600F0ACF81F
:102AE00004460C2060433146283140184068A84213
:102AF00001D20B48F0BD0C2060433146283140180C
:102B000080680849401A2101074A89180862200193
:102B10001146401845620020ECE70000BC09002087
:102B20000399FFFF00010640000006400021014814
:102B3000C16170473C0A00203B214901014A1161F3
:102B4000704700000000064070B5054600241AE0FA
:102B50008220405B2041C007C00F002812D0822095
:102B6000405B0121A140884382214853E00007498E
:102B70000858002806D0E2000B46D2185068E20040
:102B800099588847641C0C2CE2DB70BD8C00002037
:102B900010B5034800F006F80148FFF7D5FF10BD57
:102BA000BC09002070B505468020465B002418E073
:102BB0000120A0403040002812D08020405B01213D
:102BC000A140884380214853E00007490858002865
:102BD00006D0E2000B46D2185068E20099588847A8
:102BE000641C062CE4DB70BD5C0000200121014860
:102BF000C16170473C0A00207D210901014A116131
:102C0000704700000000064010B50246084B002146
:102C100009E00C2048431C4628342058904201D13A
:102C2000084610BD491C0629F3D30248F9E7000005
:102C3000BC0900200299FFFF30B502460B46094C43
:102C400000210BE00C204843254628352D5810461E
:102C50001843854201D1084630BD491C0629F1D3ED
:102C60000148F9E7BC0900200299FFFF70B506464C
:102C70000C4600213046FFF7DFFF054628010549D5
:102C80004018808C20600C206843034940188068FD
:102C900070BD000000000640200000200148806F49
:102CA00070470000BC0900200148C06FC0B27047E7
:102CB000BC09002008B5204880680122D206904354
:102CC00080181D4A906005200007C0689204904358
:102CD000801805221207D060FF20F530009000BF59
:102CE0000098421E00920028FAD105200007C06813
:102CF0000122D206904305221207D0607D200001F8
:102D00000E4A10610D488030006940084000401CA8
:102D10000A4A80321061911500BF0846491E0028FA
:102D2000FBD106488030006940084000034A8032E9
:102D30001061002008BD00000002005000000640A5
:102D40000146024841628038704700003C0A00207A
:102D500070B505460B462E46002A01D1002070BDF5
:102D6000002B01D10C48FAE784208351882082513E
:102D700000240DE014206043C1188868002801D1A8
:102D800006488860C868002801D10548C860641CEE
:102D90009442EFD30020E2E70199FFFF45260000AF
:102DA000F1260000F8B50746FFF784FF002F01D099
:102DB0005F48076000215F48018041805E4E803897
:102DC0000167082141678667083600248AE00025EC
:102DD00010E00C2060435949085C0207120F0C20D8
:102DE000684354495839085C0007000F824200D1FB
:102DF00002E06D1CA542ECD300BF0C2060434F499C
:102E00000A580C2060434B4958390A500C20604343
:102E10004A49401842680C206043464958394018D6
:102E200042600C206043454940188068002823D147
:102E3000A5420AD20C2068433E495839401882689E
:102E40000C206043401882600BE00C20604339493D
:102E50005839401886600C20604338494018406853
:102E600036180C20604333495839401881680C20CB
:102E70006043324A801881600C2060432F49085C0F
:102E8000C006C00E002817D10C20604308588021CE
:102E90000840002801D0402000E020200121490204
:102EA00008430C216143254A515C0907090F084377
:102EB000A100234A505014E00C2060431F490858D9
:102EC00080210840002801D0402000E020200C2173
:102ED00061431A4A515C0907090F0843A100184AC7
:102EE0005050641C0C20604314494018406800286E
:102EF00000D06CE71348066000200E498039C8678F
:102F000011484069C007C00F8860084600F064F9A6
:102F100008488038FFF746FE0221172000F014FF12
:102F2000172001218140094A116000BF0020F8BD2F
:102F3000440800203C0A0020000106402000002038
:102F4000640A0020480800200000064000E100E07C
:102F50000168C26F002A00D17047CA07D20F002A49
:102F60000CD07D2212011C4B1A610722C2678022FD
:102F7000125A04231A4380231A522AE002220A40DA
:102F8000002A11D01F229201134B1A61C26F012A2D
:102F900003DB2023C26F1A43C2678022125A082320
:102FA0001A4380231A5214E004220A40002A10D047
:102FB0007D221201084B1A61C26F012A03DB202314
:102FC000C26F9A43C2678022125A10231A43802389
:102FD0001A5200BFC0E7000000000640F0B585B0FF
:102FE0000446E068039060680290E06F002801D119
:102FF00005B0F0BD51490398084003900398C00FF5
:10300000C00700280AD08020005B202108438021CF
:10301000085308064A494860012020614848406832
:103020000390FF2109040398084045494860102097
:1030300000907DE001200099884003990840002815
:1030400073D000980646103E30013D494018806A12
:1030500005072D0F70003118091D0298C840702116
:1030600007460F40002F09D18220005B6A00012132
:103070009140084381B28220015356E0202F0FD1A6
:103080008220005B6900491C01228A40104381B202
:10309000822001530121B20020461030815044E0CB
:1030A000602F0FD18220005B6900491C01228A40F9
:1030B000104381B2822001530021B200204610301B
:1030C000815032E0702F30D130011D494018806AA4
:1030D0006021084001900021B2002046103081504C
:1030E0000198202812D16800401CC00015490858DA
:1030F00000281AD06A00521CD2000B46D218506821
:103100006A00521CD200995888470EE00198402866
:103110000BD128010B490858002806D02A010B467C
:10312000D21850682A01995888470098401C00908E
:103130000098162800DA7DE700BF59E700003F80BD
:10314000000006408C00002010B52148406821494D
:10315000C8600846C06808210840002806D008203A
:103160001B4948601B4800F059F830E01948C06816
:103170000421084000280CD015484069C007C00F42
:1031800014498860042012494860124800F024F86D
:103190001DE01048007BC007C00F00280AD00C4873
:1031A00000690C4908600120094948600948FFF797
:1031B000CFFE0CE00748C06802210840002806D076
:1031C0000348C068034948600846FFF707FF10BD81
:1031D00000000640BC09002010B503469C68E007CB
:1031E000C00F00280ED0D86F002804D10120D86766
:1031F0001846FFF701FD8020C05A012108438021B5
:10320000C8520AE00020D8671846FFF795FC8020D6
:10321000C05A022108438021C85210BD70470000E7
:1032200030B5054680212846FFF706FD04461348C1
:1032300084420CD0A0001249085A8005800D21015B
:10324000104A89188862012021018918C86200216A
:103250002846FFF7F1FC0446084884420CD0A00041
:103260000749085A8005800D2101064A891888629D
:10327000012021018918C86230BD00000299FFFFBA
:10328000640A0020000006400149C867704700003A
:10329000BC09002010B501208003054908620548DB
:1032A0000068002802D003480068804710BD000075
:1032B000404000502408002010B50120C0030549FB
:1032C000086205480068002802D00348006880476B
:1032D00010BD000040400050280800201CB50E48DA
:1032E000006A01900C484030006A00900321890375
:1032F00000988843009008490198086206494031C7
:103300000098086205480068002804D0034A009924
:103310000198126890471CBD004000501C08002016
:103320000EB51048006A02900E484030006A0190C5
:103330000C488030006A00900A49029808620949E6
:1033400040310198086207498031009808620648B8
:103350000068002805D0044B009A019902981B6868
:1033600098470EBD804000502008002070B5002412
:103370000E4880690005050F0C4840698001800FE8
:10338000002803D1FEF70CFE04460AE00748406916
:103390008001800F012803D1FEF706FE044600E0FD
:1033A000034C691C2046FCF78CFF70BD00020050E6
:1033B0000080510170B505461F480068002836D0CE
:1033C0001E480068002809D100221B4801681046E9
:1033D000FFF712FB0020184908602BE0174800682F
:1033E000402802D21548006800E0402004462246EA
:1033F000114801680020FFF7FFFA0F480068001924
:103400000D4908600D480068001B0C49086008461B
:10341000006800280ED1402C02D20749086009E05C
:1034200007480078002805D10349086002E0002021
:103430000449486370BD0000080200200C0200200F
:1034400010020020000006400021034A1160034AD8
:103450001160034A117070470C020020080200201E
:1034600010020020F8B505462F467C6A00269320FE
:10347000065D36029220005D801986B20020364932
:10348000087036490860364908608F20005D0328BF
:103490002ED004DC012807D0022857D10FE02128C4
:1034A00016D0222852D11BE02E494023324608680C
:1034B000122100F08BF900202B49486349E02B4A88
:1034C0009178284A40235068324600F07FF940E066
:1034D0002449402332464869092100F077F938E051
:1034E000204A11694023D068324600F06FF930E07D
:1034F0008E20005D002806D14023324604211C485E
:1035000000F064F921E08E20005D012804D002283B
:1035100009D0032815D10DE0164801784023324622
:1035200000F054F910E0144801784023324600F0CE
:103530004DF909E0114801784023324600F046F980
:1035400002E0FFF735F800BF00BF02E0FFF730F8F8
:1035500000BF00BFF8BD0000100200200C020020D8
:10356000080200208C08002000000640664A000087
:103570008F4A0000934A0000A34A0000B94A0000A5
:1035800038B50446656A8F20405D03280DD108A038
:1035900000680090684607490860002006490860F6
:1035A00002226946FFF728FA01E001F035F838BD3C
:1035B00001020000080200200C0200200449896A70
:1035C00080221143024A916200215162704700003B
:1035D000000006400449896A80221143024A916230
:1035E00000215162704700000000064070B505469A
:1035F0006C6A8F20005D01280ED08F20005D0228AC
:103600000AD08F20005D032804D140210020FFF75D
:103610005FFA01E001F000F870BD704770B5044634
:103620000D462A462146402000F09AF81B21044806
:1036300000F030F94021034800F018F970BD000097
:10364000344A00004C08002070B505462C46074857
:103650000068002803D00549A0690968884701204F
:10366000E269A169FFF7C8F970BD0000F001002010
:1036700038B5054669460220FFF7F8FA04460648C1
:103680000068002803D02046034909688847402184
:103690000220FFF71DFA38BDF4010020014604485E
:1036A0004079884201D1012070470020FCE70000EA
:1036B000664A000070B500252548FFF773FB0546F4
:1036C000002D01D0284670BDFFF7EEFA0446012C0C
:1036D00010DB2048006940084000401C1D4908617B
:1036E0007D20C000FCF7F0FF1A4800694008400048
:1036F000184908612BE00020164980390860084607
:10370000006804218843001D12498039086007E0E1
:10371000FFF7CAFA0446012C02DB202C00D000E09F
:10372000F6E700BF0C490D48FFF778FF0F20094965
:103730008039086005E0FFF7B7FA0446002C00D195
:1037400000E0F8E700BF0020024980390860D2E7B6
:10375000912B000080000640513800001B3600000D
:10376000F8B506460C4615460027002C01D0104837
:103770000460002D01D00F4805600F48FFF7E0FA04
:103780000E4948620E4808600E4848600846406886
:1037900012304861084640681B3088600846C661A0
:1037A0000D22486A0849FFF7D3FA07463846F8BDA4
:1037B000F0010020F4010020F80100208C08002016
:1037C000544A0000664A0000EC000020F8B50746A5
:1037D0000D4616461C4616480660AE4203D90560E3
:1037E0000120144908701448076011480068A0427D
:1037F0000CD20F480268104801680020FFF7FCF85F
:1038000000200D4908600A4908600FE022460A4876
:1038100001680020FFF7F0F8074800680019064922
:10382000086003480068001B01490860F8BD0000FB
:103830000C020020100200200802002010B50446EF
:103840000120FFF7EDFC0220FFF7EAFC10BD0000AD
:1038500070B5044665782078034908702946A01C95
:1038600000F00AFE70BD00001C0000200246002A85
:1038700001D106487047402902D90448001DF9E7E4
:1038800003488261C1610020F4E7000001EEFFFF00
:103890008C0800200246002A01D1034870470348E3
:1038A000C26001610020F9E701EEFFFF8C080020F3
:1038B00010B504460120E269A169FFF79DF8402197
:1038C0000220FFF705F910BD10B504462046FFF7AA
:1038D000B5FF2046FFF7ECFF10BD034619609A6064
:1038E000012018750020D8601861586001207047C9
:1038F000F0B50446069E059DE161257062700020CA
:10390000A070E370A060322060730020A06148685E
:103910002061012020732671F0BD30B504460020DF
:10392000A070E2706170237001202075257D6571A3
:10393000002525613225A560207130BD10B5022219
:1039400000211046FDF78AFA00210220FDF7CAFA8D
:10395000022201211046FDF781FA00210220FDF725
:10396000C1FA10BD1CB5134A13491448FFF7B5FF3F
:10397000104A11491248FFF7B0FF12481049486039
:103980000E494860002000900346302201900E4806
:10399000FFF7AEFF01200090022331220849019079
:1039A0000A48FFF7A5FF0323052239210848FFF73E
:1039B000B4FF1CBD204E0000983A0000F40800201F
:1039C0000C0900208813000024090020440900206D
:1039D00064090020834880680121C9038843401896
:1039E0008049886005200007C06889018843401825
:1039F00005210907C8600846C0680121C90388433A
:103A000005210907C8600846C06BFF2101318843C2
:103A1000401805210907C8630846C06B0121490207
:103A20008843401805210907C8630846C06B012177
:103A3000C9028843401805210907C8636A48C0685D
:103A400000680121C902884340186749C9680860B5
:103A50006548C0680068F821884348306249C968F1
:103A600008606148C068006804218843001D5E4901
:103A7000C96808605C48C0684068000C0004C01C4D
:103A80005949C96848605848C06880688008800003
:103A9000401C5549C9688860EB205349C9680862D1
:103AA0005148C068006840084000401C4E49C96841
:103AB000086000BF4C48C0680068C007C00F0028FD
:103AC000F8D14948C0688068800880004649C968C4
:103AD00088604548C068806880088000401C424972
:103AE000C968886081204049C96808623E48C0684A
:103AF000006840084000401C3B49C968086000BF9E
:103B00003948C0680068C007C00F0028F8D1A0205D
:103B10003549C96808623448C068006840084000F8
:103B2000401C3149C968086000BF2F48C068006860
:103B3000C007C00F0028F8D12B48C06880688008F3
:103B400080002949C96888602748C0688068800863
:103B50008000401C2449C9688860C0202249C96887
:103B600008622148C068006840084000401C1E49A7
:103B7000C968086000BF1C48C0680068C007C00F63
:103B80000028F8D11848C06880688008800016496D
:103B9000C96888601448C068806880088000401C3C
:103BA0001149C9688860AF200F49C96808620E488A
:103BB000C068006840084000401C0B49C9680860A4
:103BC00000BF0948C0680068C007C00F0028F8D1CE
:103BD0000548C0688068800880000349C96888601B
:103BE00070470000000200501C02002070B505461E
:103BF0000C46E8690021C268284600F009F8E0692F
:103C00000021C268204600F003F8012070BD0000CA
:103C100070B504460E461546002D01D1012070BD39
:103C200031462046FCF7ACFC012E21D1207800283B
:103C30000DD1E069C06840191F49884201D2284669
:103C400003E0E069C0681C49081AA06029E02078F8
:103C5000012826D1E069C06840191749884201D27D
:103C6000284603E0E069C0681349081AA06018E01C
:103C70002078002809D1E069C068A84201D9284607
:103C800001E0E069C068A0600BE02078012808D15D
:103C9000E069C068A84201D9284601E0E069C0682F
:103CA000A060E0690675E069C068E16908612046C6
:103CB00000F020FA0120B2E7983A0000C206D20EC6
:103CC00001219140014A11607047000000E100E0CD
:103CD00010B5002819DA1A4A03071B0F083B9B0886
:103CE0009B00D2588307DC0EFF23A3409A438B0727
:103CF0001B0E8407E40EA3401A43114B0407240F44
:103D0000083CA408A4001A5118E00E4A03231B0221
:103D1000D21883089B00D2588307DC0EFF23A340F0
:103D20009A438B071B0E8407E40EA3401A43054BEE
:103D3000032424021B198408A4001A5110BD00009A
:103D40001CED00E000E100E010B5002819DA1A4A85
:103D500003071B0F083B9B089B00D2588307DC0E10
:103D6000FF23A3409A438B071B0E8407E40EA34056
:103D70001A43114B0407240F083CA408A4001A514D
:103D800018E00E4A03231B02D21883089B00D25866
:103D90008307DC0EFF23A3409A438B071B0E840787
:103DA000E40EA3401A43054B032424021B19840884
:103DB000A4001A5110BD00001CED00E000E100E07D
:103DC00070B559484468E007C00F002809D00120A9
:103DD0005549486055480068002802D05349086892
:103DE000804702202040002809D002204E49486028
:103DF0004E488068002802D04C49886880470420DB
:103E00002040002809D004204749486047480069FD
:103E1000002802D045490869804708202040002832
:103E200009D008204049486040488069002802D0F5
:103E30003E49886980473C4805694669102028400A
:103E4000002818D03A480068002806D03648006993
:103E5000384908403449086106E0334800690121C7
:103E6000090588433049086130484068002802D07D
:103E70002E4948688047012000052840002817D0B7
:103E80002B480068002806D0274800692A490840C6
:103E90002549086105E0244800691021884322492A
:103EA00008612248C068002802D02049C8688047BD
:103EB00010203040002818D01D480068002806D087
:103EC000194840691B4908401749486106E01648EF
:103ED0004069012109058843134948611348406935
:103EE000002802D011494869804701200005304070
:103EF000002817D00E480068002806D00A484069FC
:103F00000D4908400849486105E00748406910210B
:103F10008843054948610548C069002802D0034923
:103F2000C869804770BD0000400004407C09002043
:103F30002C0800201F000F000F001F0070B559480B
:103F40004468E007C00F002809D0012055494860A7
:103F500055480068002802D053490868804702206D
:103F60002040002809D002204E4948604E48806811
:103F7000002802D04C49886880470420204000284F
:103F800009D004204749486047480069002802D00A
:103F900045490869804708202040002809D00820AA
:103FA0004049486040488069002802D03E498869FD
:103FB00080473C480569466910202840002818D0F1
:103FC0003A480068002806D0364800693849084059
:103FD0003449086106E03348006901210905884336
:103FE0003049086130484068002802D02E494868AE
:103FF0008047012000052840002817D02B48006882
:10400000002806D0274800692A4908402549086148
:1040100005E02448006910218843224908612248AC
:10402000C068002802D02049C8688047102030406E
:10403000002818D01D480068002806D0194840699B
:104040001B4908401749486106E0164840690121AC
:10405000090588431349486113484069002802D084
:10406000114948698047012000053040002817D0D9
:104070000E480068002806D00A4840690D490840EB
:104080000849486105E0074840691021884305490F
:1040900048610548C069002802D00349C8698047C3
:1040A00070BD0000400014409C0900202C08002036
:1040B0001F000F000F001F0010B5074800684021C7
:1040C000884340300449086004480068002802D052
:1040D00002480068804710BD0002005034080020EC
:1040E00010B504460020A070A178E078FCF710FF1E
:1040F000012010BD10B50446A068002801D10120A0
:1041000010BD0120A070E0780121FDF7C9FEA17863
:10411000E078FCF7FDFE0120F2E702460020D369BB
:10412000D860D3691861CB69D860CB691861012068
:10413000704700003B4AD268926892089200521C75
:10414000384BDB689A60B0220243364BDB681A6258
:10415000344AD268126852085200521C314BDB6854
:104160001A6000BF2F4AD2681268D207D20F002A05
:10417000F8D12C4AD268926892089200294BDB68E9
:104180009A60284AD268926892089200521C254B85
:10419000DB689A600A06120F10231A43214BDB6872
:1041A0001A62204AD268126852085200521C1D4BF3
:1041B000DB681A6000BF1B4AD2681268D207D20FB0
:1041C000002AF8D1174AD268926892089200154BDB
:1041D000DB689A60134AD268926892089200521C77
:1041E000104BDB689A600A07120F0E4BDB681A62ED
:1041F0000C4AD268126852085200521C094BDB6804
:104200001A6000BF074AD2681268D207D20F002A8C
:10421000F8D1044AD268926892089200014BDB6898
:104220009A6070471C020020FCB505460E461746F2
:10423000002400200190384620380001019000BF82
:1042400011E0F20081239A1A121BD1B26A06100EF5
:10425000FFF770FF019800191049085C0090009862
:1042600000F0AEF9641C082CEBDB002413E0F20034
:1042700081239A1A121BD1B26A00521CD0B2FFF7E6
:1042800059FF0198001908300449085C0090009813
:1042900000F096F9641C082CE9DBFCBD2C02002020
:1042A00016214143074A51610021916105211161A5
:1042B00000BF044909690122120411400029F8D005
:1042C0007047000000E000E070B520480069460734
:1042D000760F052E00D90426022E03D0B0001C490B
:1042E0000D581FE01948006A0004840F012C00D902
:1042F000641E164A126A1203D20F002A01D0154A10
:1043000000E0154A114B1B6ADB05DB0D9B1C1046B8
:1043100058430E4A126A9204D20E911CFBF7D1FF49
:10432000E0400546094880690007000F411C284607
:10433000FBF7C7FF094908600949084800684A10A7
:104340008018FBF7BEFF0749086070BD00020050EF
:104350000800002000805101001BB7000000002071
:1043600040420F00040000207047000070B50A486A
:10437000C4690A48C5690A480068002803D0204675
:1043800007490968884707480068002803D028467D
:1043900004490968884770BD000005400040154089
:1043A000380800204008002010B50548C4690548B9
:1043B0000068002803D0204602490968884710BDDC
:1043C000000015403C0800200EB559201249086035
:1043D000162008608820086001210020FDF7ECFE0F
:1043E0000020FDF71DFE00200B4908602920FCF786
:1043F00089F9E12040020090032168460171002103
:1044000041718171C1710620FDF726FE69460020C9
:10441000FDF72CFF0EBD00000001005010B5FEF7A7
:1044200093FE04480068002803D003480149096846
:10443000884710BD44080020BC090020F8B5064696
:104440000F4614460A4D402C00D9402409480078F4
:104450004006400E002E01D0802100E000210843DC
:1044600028706C7022463946A81CFBF7C9FEF8BDBF
:104470004C0800201C00002070B504460D463E226A
:1044800021460448FBF7BCFE03480168014800F0E0
:1044900005F870BDB408002014020020F3B589B0FF
:1044A0000446207808900898A5285AD00DDCA12849
:1044B00040D005DC401C002811D0A12860D15CE070
:1044C000A22833D0A4285BD148E0A638030000F02E
:1044D000B3F809504B57575757350C3A57002046F9
:1044E0000A9900F05EF80BB0F0BDA1786078FCF797
:1044F0007DF80790E078069061792079FCF776F8EE
:104500000590E179A079FCF771F80490257AA17AF9
:10451000607AFCF76BF80646E77A6846E0C0049BD1
:10452000059A0699079800F093F9DCE7607800F0A7
:10453000C7F9D8E7607800F0D5F9D4E7A1786078BA
:1045400000F05EF9CFE76578E178A078FCF74EF8E7
:1045500006463146284600F067F9C4E700F0D2F974
:10456000C1E700F0A3F9BEE7A178607800F054FA43
:10457000B9E7607800F0D0F9B5E700F0D3F9B2E719
:104580000120B0E770B504460D461646002C01D058
:10459000012100E00021084632462946FFF74EFF80
:1045A00070BD02460020704770B503461D460C469C
:1045B000002002E0265C2E54401C9042FADB70BDC5
:1045C0001449C968896889088900491C114AD26858
:1045D0009160FF21013101430E4AD26811620D49F9
:1045E000C968096849084900491C0A4AD26811602B
:1045F00000BF0849C9680968C907C90F0029F8D16F
:104600000449C968896889088900024AD2689160AA
:10461000704700001C0200200648C06A03210843BE
:104620000449C8620846C06B032108430149C863B6
:10463000704700000000064030B47446641E2578C0
:10464000641CAB4204D3635D5B00E31830BC1847C5
:104650001D46F8E710B5002400210846FFF76AFD63
:1046600000BF03E00020FFF7ABFF641C21204001E6
:104670008442F7DB0F20FFF7A3FF10BD10B55920D0
:10468000494908601620086088200860474800688B
:1046900040084000401C454908604548FFF700FEBF
:1046A0000020FDF7BDFC00203F490860FFF75AF9E4
:1046B00040494878FCF726F83F494878FCF722F84B
:1046C0003E494878FCF71EF8FCF780FF3949C87866
:1046D0000221FCF797FF3849C8780221FCF792FFC6
:1046E0003649C8780221FCF78DFF3249C8780C3171
:1046F000FCF7CAFF3049C8780C31FCF7C5FF2F49D9
:10470000C878091DFCF7C0FF2A49C8780121FDF7C8
:10471000C7FB2949C8780121FDF7C2FB2749C878A2
:104720000121FDF7BDFB2349C8780021FCF7F0FB10
:104730002149C8780021FCF7EBFB2049C87801210A
:10474000FCF7E6FB1B49C8781D4A0021FCF710FD69
:104750001949C8781B4A0021FCF70AFDFFF7EEF85B
:10476000FFF732FE1148006840084000401C0F4926
:1047700008600020FDF760FD7D20C000FBF7A4FF6E
:104780000220FDF74DFC6420FBF79EFFFFF79CFD28
:10479000FFF720F9FFF75EFF0BA1002000F01CF8E7
:1047A000FEF788FF002010BD0001005000020050FD
:1047B0008813000024090020440900206409002017
:1047C000F905000061060000496E697469616C209A
:1047D000555342202020000070B506460C460025A7
:1047E00000BF2278641CE9B23046FFF71DFD6D1C46
:1047F0000F2D00DD02E020780028F2D100BF70BD4F
:1048000070B504460D46002C04D129460448FBF738
:10481000B7FE03E029460348FBF7B2FE70BD000077
:10482000240900204409002070B504460D46002CE0
:1048300004D129460448FBF7CDFE03E0294603488E
:10484000FBF7C8FE70BD00002409002044090020C9
:10485000F8B504460D4616461F4611480899FBF761
:10486000A1FE1048C06905750F490698C969087509
:1048700031460C48FBF7AEFE0B480799FBF7AAFE42
:104880000848C069017D22460648FFF7C1F906487D
:10489000C069017D3A460448FFF7BAF9F8BD000047
:1048A00064090020240900204409002010B50249B1
:1048B0000248FFF79BF910BD44090020240900209D
:1048C00010B50446002C03D10448FFF709FC04E0AE
:1048D000012C02D10248FFF703FC10BD240900207F
:1048E0004409002010B50446002C03D10348FFF70B
:1048F00001FC02E00248FFF7FDFB10BD2409002087
:104900004409002010B502490248FFF706FC10BD1B
:104910004409002024090020014601480170704725
:104920001802002030B591B00025402101A8FBF706
:10493000C6FC002434480178684601713348008978
:104940000004010E684641713048017A6846817161
:104950002E48C06980890004010E6846C1712B4849
:10496000C069017B684601722848C069017D6846BC
:10497000417226488178684681722448C0698088DF
:104980000004010E6846C1722048C069017968467A
:1049900001731F4800890004010E684641731C48DA
:1049A000017A684681731A48C06980890004010E43
:1049B0006846C1731648C069017B68460174144893
:1049C000C069017D684641741148817868468174E8
:1049D0000F48C06980880004010E6846C1740C4805
:1049E000C0690179684601750A4881786846417551
:1049F0000848017D684681753E2201A92046FFF7DF
:104A0000C1FD11B030BD00001802002024090020B3
:104A1000440900206409002070B504460D4604488E
:104A20000078A04203D129460148FBF7BBFD70BDC9
:104A30006409002005010900A101150025FF1901E5
:104A40002908954075088102190129089102C000C2
:104A50001B00000012011001000000401A051B514C
:104A6000000001020301090229000101008032094E
:104A70000400000203000000092110010001221BB4
:104A800000070581034000010705020340000104FF
:104A900003090410034E00550056004F0054004F08
:104AA000004E001603550053004200200048004904
:104AB000004400200049004F001A03420030003239
:104AC0000030003000360030003900320031003153
:104AD000003400000100000002000000020000009D
:104AE00004000000044B0000000000204C080000FF
:104AF00004010000505300004C0800209406000000
:104B0000200100000080510116000000001BB700CA
:104B1000008000000080510110270000008051013A
:104B200000000000800000004000000000000000C5
:104B300000000000400000000000000081000000B4
:104B400040000000000000000200000040000000E3
:104B50000000000000000000000000000000000055
:104B60000000000000000000000000000000000045
:104B7000D52400008C080020000000000000000088
:104B80000000000000000000152700008C08002035
:104B9000F52500008C080020A12600008C080020CC
:104BA000493600008C0800200000000000000000D2
:104BB0000000000000000000713600008C0800209A
:104BC00000000000000000000000000000000000E5
:104BD00000000000000000000000000000000000D5
:104BE00000000000000000000000000000000000C5
:104BF000000500001D2900006526000000000000DF
:104C00008C08002000010000B9270000000000000F
:104C1000000000008C08002000030000B9270000FD
:104C200000000000000000008C08002000080000C8
:104C30007528000000000000000000008C08002023
:104C4000000000009D28000000000000000000009F
:104C50008C080020000A00008928000000000000E5
:104C6000000000008C080020000B0000D12900008B
:104C700000000000000000008C080020000600007A
:104C800065340000B5330000493400008C08002072
:104C9000000900005D290000000000000000000085
:104CA0008C08002020010000813500000000000079
:104CB000000000008C08002020090000ED350000F5
:104CC00000000000000000008C080020200A000006
:104CD000BD35000000000000000000008C0800202E
:104CE000200B0000D535000000000000000000008F
:104CF0008C08002000000000000000008C0800204C
:104D0000C93800009D3600000000000000000000CF
:104D10000000000000000000000000000200000091
:104D200000000340004013400000134000401340C7
:104D30000000000000000000000000000000000073
:104D4000F000000000000000CF00000000000000A4
:104D50000000000000000000F00000F00000000073
:104D6000000000C030C03000C839CF390F09010041
:104D7000E01010F810106000304142FF424438004B
:104D8000C02010E020E0180001C2310C73884438C4
:104D900000E01010E00000007885828D70A29E4235
:104DA0000000000000000000F00000000000000013
:104DB000C0300804000000001F60800000000000F8
:104DC000040830C0000000000080601F00000000E8
:104DD00000000000000000004428FE2844000000FD
:104DE0000000008000000000080808FF0808080014
:104DF0000000000000000000B07000000000000093
:104E000000000000000000008080808000000000A2
:104E10000000000000000000C0C000000000000012
:104E20000000807000000000E01C03000000000093
:104E3000C020101020C000003F408080403F000094
:104E400020F000000000000080FF80000000000053
:104E50006010101020C00000C0A0908886C1000023
:104E600020101010E0000000808082834438000091
:104E700000008060F000000018161110FF10000004
:104E800000F010101010000080818181423C000071
:104E900080402010101000003F428181423C000001
:104EA00070101010907000000000E01C0300000063
:104EB000C020101020C00000384582824538000014
:104EC000C020101020C0000083848848241F0000E8
:104ED0000000000000000000C3C30000000000004C
:104EE000C0C0000000000000B07000000000000022
:104EF0000000000000000000102828444482000048
:104F00000000000000000000888888888888888861
:104F10000000000000000000824444282810000027
:104F2000E010101020C000000000D80601000000B2
:104F3000C02010909010A0C03F408F90908F505F85
:104F4000000080708000000080F08F088FF08000EB
:104F500010F010101020C00080FF828282453800BF
:104F6000C0201010102070003F40808080804000E2
:104F700010F010101060800080FF808080601F00A3
:104F800010F010101010700080FF82828287E00005
:104F900010F010101010700080FF82020207000055
:104FA000C0201010207000003F408080847C0400EE
:104FB00010F0100010F0100080FF820282FF8000CD
:104FC00010F010000000000080FF800000000000D2
:104FD000000010F0100000004080807F0000000002
:104FE00010F010805030100080FF830CB0C08000A3
:104FF00010F010000000000080FF808080C02000C2
:1050000010F0800080F0100080FF833C83FF800060
:1050100010F0C00010F0100080FF800F30FF000083
:1050200080601010106080001F60808080601F0012
:1050300010F010101020C00080FF84040402010052
:10504000E01804040418E000071820206098870086
:1050500010F010101020C00080FF840C34C28100BA
:10506000C020101010207000E0418282844830007F
:10507000301010F010103000000080FF80000000A1
:1050800010F0100010F01000007F8080807F000082
:1050900010F0100010F0100000011EE01E010000D2
:1050A00010F010C010F01000000FF00FF00F000013
:1050B000107090009070100080E0990699E08000D8
:1050C0001070900090701000000083FC83000000BE
:1050D0007010101010D03000C0B088868180E000C1
:1050E000FC04040000000000FF80800000000000BD
:1050F000708000000000000000031CE000000000C1
:105100000404FC00000000008080FF00000000009C
:105110000000000000000000806018061860800099
:10512000000000000000000080808080808080807F
:10513000000000000000000020604080000000002F
:10514000000000000000000066918949FE80000018
:1051500010F0000000000000007F8181423C000050
:1051600000000000000000003C42818181420000FC
:1051700000000010F00000003C4281817F800000B0
:1051800000000000000000003C4A89898A4C0000B1
:105190000000E010102000000181FF8101000000EC
:1051A000804040408040000053ACA4A4A3400000D5
:1051B00010F000000000000080FF0101FE800000F0
:1051C00000B000000000000081FF8000000000002F
:1051D000000080CC000000004080807F00000000C4
:1051E00010F000000000000080FF9825C38100003F
:1051F00010F000000000000080FF800000000000B0
:10520000000000000000000081FE01FE01FE8000A1
:10521000000000000000000081FE0101FE8000008F
:1052200000000000000000003C428181423C000080
:10523000408040408000000080FFA020100F000050
:1052400000804040804000000F1020A0FF80000040
:10525000000000000000000081FF8201010000004A
:105260000000000000000000E649899192670000FC
:105270000000C0000000000001017F8181400000AB
:105280000000000000000000017F80817F8000009E
:105290000000000000000000010739C039070100CC
:1052A0000000000000000000011FE11CE11F0100E0
:1052B000000000000000000081E71818E7810000EE
:1052C00040C0400040C040008081463806010000D8
:1052D0000000000000000000C3A1918985C3000008
:1052E00000F0080000000000027D800000000000C7
:1052F000F000000000000000FF00000000000000BF
:1053000008F0000000000000807D020000000000A6
:105310000000000000000000C0202060C08080600D
:10532000000000000000000000000000000000007D
:10533000000000000000000000000000000000006D
:10534000000000000000000000000000000000005D
:040000050000019D59
:00000001FF
